:020000040000FA
:0600000002010702291DA8
:03002B00022D7132
:03003300022E0199
:03004300022D1576
:03005300022993EC
:03007300022D97C4
:03007B00022D3B18
:10008300022773E5C754F84401F5C779012200003C
:100093000080FB120086B900030200F1E4792178A5
:1000A30008B800028004F709D8FCE479297802B87B
:1000B30000028004F709D8FCE490028178CF791616
:1000C3008002F0A3D8FCD9FA7A4F7B1890013778D5
:1000D3006679068015E493A3AD82AE838A828B830F
:1000E300F0A3AA82AB838D828E83D8E9D9E7758288
:1000F3007B75838974041201197582917583007469
:100103000012011975D00075813F751881751902A8
:10011300759F00020096C09FF59FE473D09F22D085
:1001230083D082C09FE493C0E0740193C0E0740263
:1001330093F59F22110199010F12640400AD270169
:10014300113104010283910100006291027D91014A
:100153000000541802B5910100005518027991036B
:1001630000008A0202CD910100005D18027791011F
:1001730000005618FF0000B40000280028002830B3
:1001830075A000A000A000A00000080008E001F096
:10019300001000100010001000100010005000505C
:1001A30000500010001000D0070000000000000FF6
:1001B3000001000500307507001000010081FF00F9
:1001C300000000FFFFFFFA08180900093C09FF02BD
:1001D300020208025000A0000000E803028391011C
:1001E30000006591027D91010000EA1802B28F01BF
:1001F3000000CA02027D91010000EB1802899101FF
:100203000000E002027D91010000EC1802999101C7
:100213000000E202027D91010000ED1802AF910897
:100223000000E302027D91010000EE1802B7910184
:100233000000EF18FF0100FF200283910100006B13
:1002430091027D91010000531902BF91000000004B
:100253000002799103000011031700F60FF60FF661
:100263000FF60FF60FF60FF60FF60FF60FF60FF663
:100273000FF60FF60FD212E412CC120202020202A0
:1002830002020202010D000000100102839101002D
:10029300007491027D91010000961902B191010051
:1002A300004B07027D91010000971902AD910100F7
:1002B30000738F027D91010000981902AB91010038
:1002C30000578F027D910100009919029591010059
:1002D30000158F027D910100009A1902939101008C
:1002E30000038F027D910100009B1902919101008F
:1002F30000DF8E027D910100009C19028F910100A5
:1003030000F18E027D910100009D19028D91010083
:1003130000658F027D910100009E19028B910100FF
:10032300009F1901C700000CD7D69D2C9A3A1A3B9F
:100333000811014E004F970001E8030577100A6486
:1003430001DE15000008094E5431303030420609F1
:100353004E505731420201060319C1030502121818
:100363000F184E54313030304300000000000000BD
:10037300000000000000004E505731430000000011
:1003830000000000000000000000000040771B0098
:1003930002D00762595A5B5C5D5E5F606168100062
:1003A300006810000001018000800300008003004A
:1003B30000800300008003001027000000000000FD
:1003C300000000002A2B282B00280000000000005A
:1003D3000000000000000000000000002C9DB39FFF
:1003E300A0A1A334A5A6A4AD36563738271E1F20D7
:1003F300212223242526B233B52EB6B79E838485C6
:10040300868788898A8B8C8D8E8F90919293949511
:10041300969798999A9B9C2F3130A2AC00040506BD
:100423000708090A0B0C0D0E0F10111213141516E1
:100433001718191A1B1C1DAE00AF00637E3B2C2E30
:100443006E79656172323031323247554659013126
:1004530035454B422C010C000000010003FFFFFF58
:10046300640101000000921698160000013F020289
:10047300192A0406011200010E0002120E120A00CC
:1004830003064368617261637465726973746963B7
:100493002032000283910100006E91027F910100DE
:1004A30000B810027D91010000891B029F9140005A
:1004B30000FA8F027D910100008D1B02A391800041
:1004C30000BA10027D910100008E1B02A791C000AB
:1004D300008F1B027D910100008A1B02A191400045
:1004E30000FE8D02C1910100008B1B027D91010072
:1004F30000901B02A591400000BB1002799181007E
:1005030000BC1002CD91010000911B027D910100FE
:1005130000931B02A591C00000BE1002CD91010003
:1005230000941B027D91010000961B02CB914000B9
:1005330000BF10027991810000C010027D9101007B
:1005430000971B029D91C00000C210027D91010023
:1005530000981B029B91400000C310027991810017
:1005630000C410027D91010000991B02A591C000F7
:1005730000C61002CD910100009A1B027D9101007B
:10058300009C1B02A991030000C710027B9101008C
:10059300009D1BFFFFFF00013075030201060000F1
:1005A3000000000000000000000000000000000048
:1005B30000000000000000000000FFFF0600800CA8
:1005C300E80304100283910100006891027D910108
:1005D3000000DD1C02BB918000007917027D9101B0
:1005E3000000DE1C02BD910000007D17027991819D
:1005F30000007E170A4368617261637465726973F0
:1006030074696320310008436861726163746572C1
:1006130069737469632033001043686172616374A2
:100623006572697374696320340002839101000069
:100633007191027D910100000F1D02C5910300001D
:100643008C17027B91010000101D027D91010000B7
:10065300211D02C791020000A117027B9101000036
:10066300221D027D91010000331D02C9910000008B
:10067300A217027991030000AC17027B91010000DD
:10068300341D00001E00401AC21AA21BC21BC21B4B
:100693000000000101FF00FF00120122D8FF031236
:1006A3000122BED6031201221AD7031201222DD72B
:1006B300031201225FD703120122D7D703120122AB
:1006C300F8D703120122A3D80312012236D9031249
:1006D3000122FDD9031201229FE203120122B2E299
:1006E30003120122E3E2031201221DE3031201229A
:1006F30076E303120122BDE30312012205E4031290
:10070300012234E40312012263E4031201229AE476
:1007130003120122E1E403120122FAE4031201228B
:100723004FE50312012268E503120122B6E5031225
:100733000122F0E50312012200800312012203814A
:10074300031201223C81031201225F810312012261
:10075300718103120122AF81031201222B82031242
:100763000122F38203120122158303120122AC83B7
:1007730003120122FE83031201222F84031201229A
:100783003C8403120122A68403120122FD84031276
:1007930001220085031201223985031201223C85BF
:1007A300031201224685031201229A8503120122B4
:1007B300DB85031201220E86031201224B860312EC
:1007C30001224D8703120122F187031201225A8865
:1007D30003120122988803120122BEDA03120122B6
:1007E300E6DA0312012213DB031201224BDB0312AD
:1007F3000122A9DB03120122F5DB031201225CDCD7
:10080300031201229CDC03120122D9DC0312012210
:1008130007DD03120122B1DD03120122BBDD031246
:100823000122C8DD03120122FBDD0312012207DED0
:10083300031201221FDE0312012229DE0312012209
:10084300DC9204120122EA9204120122029304129E
:100853000122199304120122008002120122AA80AC
:1008630002120122BD8102120122398202120122E7
:100873005783021201229383021201222E84021251
:100883000122128502120122DE85021201226C87E7
:1008930002120122DD87021201229788021201222D
:1008A300898902120122C989021201227D8A021258
:1008B3000122AF8A02120122A58C02120122E78CC7
:1008C30002120122058D021201226B8D02120122F6
:1008D3003A8E02120122FE8E021201221D91021291
:1008E3000122C19803120122AB9903120122569AE5
:1008F30003120122A79A03120122579B031201221A
:10090300C89B03120122AD9C03120122E19C031236
:100913000122DA9D03120122179E03120122F39E84
:1009230003120122329F031201224E9F031201225E
:10093300728204120122F68204120122218304121C
:1009430001223B8404120122B7DE03120122CDDE11
:1009530003120122EBDE03120122FCDF0312012248
:1009630006E00312012231E10312012228E20312FD
:10097300012295E203120122507A00120122867BA2
:1009830000120122BD7B00120122147C00120122FD
:10099300297E001201228BCE0112012217CF0112F0
:1009A30001227BD00112012287D001120122C2D081
:1009B3000112012231D1011201223AD20112012284
:1009C30043D3011201220AD40112012267D5011275
:1009D300012285D501120122A2D5011201224FD68F
:1009E30001120122CCD601120122F4D601120122F6
:1009F300BED901120122C3D901120122DCDB01128B
:100A030001222ADC011201229ADC01120122D8DC24
:100A130001120122B4DD0112012274DE011201224E
:100A2300C0DE01120122C3DE0112012207DF01121F
:100A330001224FDF011201228EDF01120122B0DFFA
:100A430001120122E4DF0112012247E00112012217
:100A530064B20312012272B203120122C5B203125D
:100A63000122E4B20312012229B3031201226DB45D
:100A73000312012208B5031201224CB5031201220D
:100A830076B503120122E5B5031201222BB6031238
:100A93000122A2B60312012253B7031201223A5ACA
:100AA300001201224A5A00120122EB5A00120122BB
:100AB300475B00120122045C00120122205D001238
:100AC3000122525D00120122815D001201222E5F7C
:100AD30000120122A56100120122156400120122F5
:100AE3000765001201220066001201220768001246
:100AF3000122FB6A001201222A6C001201222E6ECF
:100B0300001201223E6F00120122CD700012012259
:100B1300BE71001201220C72001201227B720012BC
:100B230001229F7200120122F072001201229177BA
:100B330000120122927800120122F378001201229E
:100B43001E7900120122E47900120122EFC9031277
:100B53000122F9C9031201223ECA0312012252CA19
:100B630003120122E2CA031201221BCB0312012248
:100B730056CB031201227FCB03120122D3CB0312E4
:100B83000122E8CB031201220ACC031201221FCC5B
:100B93000312012233CC0312012248CC0312012297
:100BA30082CC03120122AECC03120122F7CC031232
:100BB300012269CD0312012294CD03120122D7CD64
:100BC3000312012201CE031201222CCE03120122B1
:100BD300D68E041201222CDF021201220FE0021230
:100BE30001228AE002120122C5E00212012216E26A
:100BF30002120122A4E20212012236E502120122AC
:100C0300E8E502120122F4E60212012267E8021269
:100C13000122C0E80212012254CE0312012297CE10
:100C2300031201221BCF03120122F2D1031201226C
:100C3300008004120122B28004120122AE81041248
:100C43000122ED810412012247820412012241860E
:100C530004120122A48604120122418704120122F4
:100C6300768704120122A68704120122E187041267
:100C7300012201880412012224BC03120122B0BC08
:100C8300031201226FBD0312012287BE0312012248
:100C9300A1C00312012242F30112012267F30112E0
:100CA300012234F40112012208F50112012275F523
:100CB30001120122B5F50112012251F6011201229E
:100CC30085F70112012260F801120122BFF8011217
:100CD30001224BF901120122B9F90112012245FA4D
:100CE300011201228BFA01120122FDFA01120122E3
:100CF3008FFB0112012230FC0112012250FC011270
:100D0300012298FC01120122E1FC01120122FDFCE7
:100D13000112012223FD011201229DFD0112012274
:100D2300ABFD011201223AFE01120122A3FE0112C0
:100D33000122D8C0031201225DC1031201229FC107
:100D43000312012283C203120122F0C20312012201
:100D530034C30312012278C303120122A5C3031271
:100D63000122CDC30312012205C40312012243C48D
:100D7300031201226AC403120122E4C403120122F2
:100D83002EC5031201221FE101120122C7E2011243
:100D93000122F4E40112012248E50112012273E564
:100DA3000112012245E60112012289E60112012204
:100DB300CDE601120122E0E60112012221E7011230
:100DC30001224EE7011201229CE701120122DDE715
:100DD300011201220BE8011201225EE80112012235
:100DE300F5E801120122DFEB01120122F5ED0112F8
:100DF300012233EE01120122C6EF011201220BF090
:100E0300011201227DF001120122CEF00112012212
:100E130008F1011201220DF101120122ADF10112BB
:100E23000122D8F1011201220EF3011201221FF354
:100E33000112012269E902120122E8E902120122E8
:100E4300E1EF02120122E7F0021201225AF202122A
:100E53000122F1F2021201222AA70112012273A731
:100E630001120122A0A701120122D2A7011201221D
:100E7300DFA701120122EBA701120122FDA7011234
:100E83000122D8A80112012236A9011201226BA95D
:100E930001120122A2AA01120122EFAA01120122C8
:100EA30013AB0112012283AB0112012244AC0112E4
:100EB300012207AD0112012275AD0112012232AEEA
:100EC3000112012245AE01120122C3AE0112012219
:100ED30056AF011201227DAF01120122E5AF0112CB
:100EE300012236B0011201228BB00112012226B178
:100EF30001120122D1B1011201227DB2011201229C
:100F0300EFB20112012243B301120122A3B3011272
:100F13000122D3B30112012269B40112012292B555
:100F230001120122DAB501120122F7B501120122E1
:100F330016B60112012245B6011201225AB7011257
:100F43000122E0B70112012205B8011201221AB8E9
:100F5300011201228DB801120122CEB80112012221
:100F6300EAB9011201228BBA01120122D9BA011284
:100F7300012243BB011201225CBB011201221BF3BC
:100F8300021201226FF3021201227BF302120122E9
:100F930045F40212012272F402120122A0F4021299
:100FA30001220CF50212012242F5021201227BF505
:100FB3000212012293F502120122E8F50212012224
:100FC30001F60212012246F60212012259F602121A
:100FD300012273F60212012289F602120122A7F7F7
:100FE30002120122D2F802120122BCF902120122DA
:100FF300ADFA02120122D92E001201227ABB02128B
:101003000122ACBB0212012272BF02120122CDC027
:101013000212012293C10212012212C302120122FF
:10102300E9C30212012238C40212012252C402127D
:10103300012294C4021201229FC402120122E6C4B7
:1010430002120122EFC4021201229BC502120122E5
:1010530074C602120122BBC60212012223C7021266
:10106300012265C70212012293C702120122D0C7CF
:10107300021201228CBB0112012252BF0112012272
:1010830058BF01120122FCC50112012250CA0112EC
:10109300012239CE011201220CEA0312012282EA53
:1010A3000312012298EA0312012228EB0312012200
:1010B30065EB031201229FEB03120122D9EB03120A
:1010C30001224CEC031201228DEC0312012296EC57
:1010D30003120122A2EC03120122C1EC031201222A
:1010E300EBEC0312012200ED0312012243ED031284
:1010F300012265B70312012278B70312012292B7C6
:1011030003120122BFB70312012205B80312012201
:1011130038B80312012276B803120122DBB8031296
:101123000122F0B803120122FBB80312012208B90D
:10113300031201221FB9031201222DB90312012246
:1011430038B90312012244B90312012257B9031219
:10115300012262B90312012285B90312012229BABD
:101163000312012239BA0312012253BA03120122D4
:1011730070BA031201228BBA03120122B0BA03120E
:101183000122BBBA03120122D0BA03120122E4BA2C
:101193000312012245BB031201224BBB031201229E
:1011A30051BB0312012257BB031201226FBB03126F
:1011B3000122A2BB03120122F7AD021201228EAE5D
:1011C3000212012226AF0212012216B002120122DC
:1011D3004DB00212012260B002120122CEB00212FF
:1011E300012269B20212012290B20212012232B329
:1011F3000212012267B30212012278B30212012202
:10120300F1B30212012212B4021201222AB4021211
:10121300012282B5021201228BB702120122DBB92D
:1012230002120122DEBA021201222DBB0212012296
:101233002A91021201222792021201221293021210
:1012430001221C93021201223E93021201224A93AD
:10125300021201229C9402120122CB940212012257
:10126300FB95021201223D96021201226997021296
:1012730001223F9802120122919802120122F09852
:1012830002120122279902120122629902120122FB
:10129300FD9C02120122169D02120122989D021248
:1012A3000122A69D02120122FB9D02120122099E28
:1012B30002120122769E02120122E89E02120122EC
:1012C3002E9F021201221CD4021201223ED40212CA
:1012D300012228D602120122CDD90212012210DBEB
:1012E30002120122EADB02120122D4890412012232
:1012F300F989041201226A8A04120122BE880312A8
:101303000122C78803120122D08803120122018A15
:1013130003120122208C03120122568C0312012294
:10132300908C03120122C68C03120122008D03123A
:101333000122348D03120122608D03120122A98D33
:1013430003120122E38D031201222B8E03120122C9
:10135300818E03120122B68E03120122118F031212
:1013630001224B8F031201229C8F03120122D28F81
:10137300031201220C90031201223A90031201225C
:101383005D900312012265940412012291940412C8
:101393000122EC9404120122F69404120122069510
:1013A30004120122FDF50312012224F60312012285
:1013B30058E60312012283E6031201228FE6031289
:1013C3000122ABE60312012204E70312012223E701
:1013D300031201228EE703120122E2E70312012224
:1013E30043E8031201224EE80312012231E90312FA
:1013F3000122D1E903120122FCE903120122BD9863
:1014030004120122EE98041201228F990412012280
:10141300D291011201222F94011201220695011289
:101423000122BA9601120122179701120122149880
:10143300011201229C980112012228990112012212
:101443004D99011201229D9901120122929C0112D0
:101453000122089D01120122F49D011201222E9EF8
:10146300011201226E9E01120122E69F0112012246
:101473003BA00112012269A001120122D7A001128F
:1014830001220AA10112012224A10112012236A282
:101493000112012246A201120122C7A30112012255
:1014A300E7A3011201221DA40112012288A5011242
:1014B3000122C7A50112012205A7011201226EC54F
:1014C30003120122C6C5031201220EC70312012211
:1014D3007DC7031201222CC8031201224BC8031239
:1014E30001229FC803120122DDC803120122A9931E
:1014F30004120122BA93041201225A940412012203
:10150300D99904120122189A04120122E5FF01124B
:10151300012210950412012220950412012238950C
:1015230004120122A09504120122EA8F041201225F
:101533006E9004120122D49004120122AD9504127C
:101543000122B09504120122E995041201223F966B
:101553000412012267FC021201227BFC0212012207
:10156300F4FC02120122C9FD021201229BFF0212A6
:101573000122A1F8031201223AF903120122B8F958
:101583000312012238FA031201228AFA03120122FA
:1015930094FA03120122A7FA03120122C1FA0312D9
:1015A300012222FB031201223AFB03120122E0C8AB
:1015B3000212012249C9021201226ECA0212012239
:1015C30090CA02120122A3CA021201220DCB0212F7
:1015D300012238CB02120122FECC021201226ECF6D
:1015E300021201221BD00212012280D00212012218
:1015F300DED0021201221FD10212012222D10212D5
:1016030001226DD102120122C6D1021201226CD233
:101613000212012206D302120122A8D302120122CE
:10162300CBD302120122E9D302120122E42E0012CB
:101633000122ED2E00120122F62E001201222C2F80
:10164300001201228E30001201221D3300120122EA
:101653003836001201224C3700120122E7380012FB
:101663000122433C00120122333D00120122AC3D12
:10167300001201228B3E001201223143001201228B
:10168300C35500120122785800120122CC580012CF
:101693000122275900120122035A00120122065A7D
:1016A300001201220F880412012240880412012231
:1016B3007B88041201223DFB0312012201FD031268
:1016C30001226AFD03120122F07F00120122D59646
:1016D300041201223E9704120122509704120122A0
:1016E300E891041201221192041201223A92041287
:1016F3000122529204120122949204120122D992DD
:1017030004120122F0AC03120122FAAC03120122EB
:101713003AAD0312012283AD03120122BDAD0312C0
:10172300012213AE0312012232AE031201223BAE99
:10173300031201228CAE03120122B5AE0312012261
:10174300CAAE031201223AAF03120122C8AF031239
:1017530001220CB00312012234B003120122B3B0F0
:1017630003120122F6B00312012233B10312012244
:1017730045B10312012264B10312012273B10312B2
:10178300012238B203120122388D04120122898DFD
:1017930004120122128E04120122788E04120122F5
:1017A3003EF30312012268F3031201225DF40312D4
:1017B30001228CF40312012212F503120122ED908F
:1017C300041201222B9904120122D6FD03120122D5
:1017D3000CFE0312012245FE031201229EFF031297
:1017E3000122D89704120122EE9704120122F897DE
:1017F30004120122EB9003120122A8910312012289
:10180300E391031201220B92031201226D92031240
:101813000122B99203120122249303120122A093FD
:10182300031201229C940312012223960312012224
:10183300A696031201220A9703120122219703128B
:101843000122179803120122639803120122A4D2E2
:1018530003120122B9D2031201226CD30312012213
:10186300ACD303120122C5D303120122F8D303120E
:10187300012245D40312012279D403120122BBD4DD
:1018830003120122B1D603120122B79F02120122D1
:101893006EA30212012200A50212012257A5021211
:1018A300012276A502120122F4A50212012286A7C3
:1018B300021201226AA8021201227BAC0212012247
:1018C3004FAD021201226A8404120122C48404125D
:1018D3000122D78404120122708504120122758526
:1018E300041201229CA60312012204A7031201225F
:1018F3007AA70312012253A80312012265F00312EF
:1019030001226AF0031201226FF00312012292F006
:1019130003120122B0F003120122BEF003120122CE
:10192300E3F00312012256F103120122A4F1031280
:101933000122F2F10312012208F2031201225CF2E6
:1019430003120122F4F2031201220CF30312012207
:101953008A8B04120122D48B04120122E48B041219
:1019630001223D8C04120122988C04120122E18C85
:1019730004120122CDFE011201223AFF01120122BB
:101983004BFF0112012294FF01120122CAFF01122F
:10199300012271ED0312012295ED03120122EAEFF8
:1019A3000312012204F0031201222FF00312012279
:1019B3005196041201224E980412012279980412BE
:1019C3000122A39804120122A59804120122A798C8
:1019D30004120122B89804120122BA9804120122B7
:1019E3005B9704120122689704120122AF9F03122E
:1019F300012280A00312012270A10312012281A1FE
:101A03000312012292A103120122DCA1031201227B
:101A130075A303120122C5A403120122F5A4031224
:101A23000122C0A50312012220A603120122229A39
:101A330004120122689A04120122949A04120100EA
:101A430002000000205104B4160001010203010941
:101A5300022200010100A019090400000103010191
:101A630000092111010001223F000705810308003D
:101A73000A04030904240354006500780061007319
:101A830000200049006E0073007400720075006D41
:101A93000065006E00740073001E0355005300427E
:101AA30000200043004300320035003400300020A2
:101AB30000480049004400080330003000310005AD
:101AC300010906A10195087501050719E029E71524
:101AD30000250181029501750881039505750105AE
:101AE300081901290591029501750391039506755E
:101AF30008050719002965150025FF8100C0050C9D
:101B03000901A1010902A10205091901290A150107
:101B1300250A750495018100C0050C098615FF256A
:101B23000175029501814609E909EA1500750195D8
:101B330002810209E209300983098109CD094009BB
:101B4300B209B309B409B509B609B71501250C756E
:101B530004950181000980A10205091901290315D2
:101B630001250375028100C08103C005010902A19B
:101B7300010901A1000509190129031500250175B2
:101B8300019503810275059501810105010930095C
:101B93003109381581257F750895038106C0C02258
:101BA300000000C21A3F0022000001011B6D002249
:101BB3000000036E1B340021000000641A09005B5F
:101BC3001A0000E76670100809E766700A0809E75B
:101BD3006670040809E76622E066701008A3E066F1
:101BE300700A08A3E066700408A3E06622C3E796C0
:101BF3000809E7960809E7960809E79622C3E096DD
:101C030008A3E09608A3E09608A3E09622C008C3C1
:101C1300E096F50808A3E096420808A3E096420878
:101C230008A3E09645087001D3D00822BB0102E760
:101C330022C082C08389828A83BB0003E08002E4DE
:101C430093D083D08222BB000EC082C0838A838953
:101C530082F0D083D08222BB0101F722080808EA70
:101C6300C0E0EBC0E086F0E7A4FA180986F0E7A429
:101C73002AFA180986F0E7A42AFA180986F0E7A4D5
:101C83002AFA1986F0E7A4FBE5F02AFA190886F088
:101C9300E7A42BFBE5F03AFA190886F0E7A42BFB3F
:101CA300E5F03AFA18180986F0E7A4C5F02BFBE42F
:101CB3003AFA1908E7C5F0C6A426F6E5F03BFBE4BB
:101CC3003AFA1886F0E7A4F6E5F00826F6E43B08AE
:101CD300F6E43A08F6D0E0FBD0E0FA22E4CFC0E025
:101CE300E4CEC0E0E4CDC0E0E4CCC0E075F020E693
:101CF30026F608E633F608E633F608E633F6181850
:101D030018EC33FCED33FDEE33FEEF33FFC3EC97FA
:101D130009ED9709EE9709EF97191919400FFFEC91
:101D230097FC09ED97FD09EE97FE191906D5F0BF4B
:101D3300ECF709EDF709EEF709EFF7191919D0E0F8
:101D4300FCD0E0FDD0E0FED0E0FF226016080808DA
:101D5300C6C313C618C613C618C613C618C613C6F9
:101D6300D5E0EA227009080808226016181818C678
:101D7300C333C608C633C608C633C608C633C6D57A
:101D8300E0EA22E627F60809E637F60809E637F619
:101D93000809E637F622E026F608A3E036F608A39C
:101DA300E036F608A3E036F622E026F008A3E03694
:101DB300F008A3E036F008A3E036F022C3E697F676
:101DC3000809E697F60809E697F60809E697F62262
:101DD300C3E0C696F608A3E0C696F608A3E0C69647
:101DE300F608A3E0C696F622C3E096F008A3E096B1
:101DF300F008A3E096F008A3E096F022E056F60878
:101E0300A3E056F608A3E056F608A3E056F622E050
:101E130056F008A3E056F008A3E056F008A3E056F6
:101E2300F022E046F008A3E046F008A3E046F008FD
:101E3300A3E046F022E0F608A3E0F608A3E0F608E4
:101E4300A3E0F622E6F008A3E6F008A3E6F008A371
:101E5300E6F022E0FAA3E0FBA3E0FCA3E0FD22E02E
:101E6300F8A3E0F9A3E0FAA3E0FB22E8F0A3E9F08A
:101E7300A3EAF0A3EBF022CAC0E0E6F0A308DAFA83
:101E8300D0E0FA22CAC0E0E0A3C582CCC582C583F4
:101E9300CDC583F0A3C582CCC582C583CDC583DA06
:101EA300E6D0E0CA22C58224FDC582C58334FFC5BE
:101EB3008322C3E498F8E499F9121EF68026C3E45A
:101EC3009AFAE49BFBE920E7E9121EF6E498F8E4AA
:101ED30099F922C3E498F8E499F9121EF6E498F804
:101EE300E499F9C3E49AFAE49BFB22EB20E7CFE9F8
:101EF30020E7E0B90010BB0008E88AF084F8AAF0F4
:101F030022E4FBC8FA22EB70227B10C833C8C93322
:101F1300C9335007C39AC3DBF280069A50012ADB08
:101F2300EAC833F4C8C933F4C9FA2275F008E4C81F
:101F330033C8C933C933C99AC99B5004C92AC93B99
:101F4300D5F0ECFBC833F4C8E4C9FA22600D08C627
:101F5300A2E713C618C613C6D5E0F322600C08C661
:101F6300C313C618C613C6D5E0F422700422600D4D
:101F730018C6C333C608C633C6D5E0F418222518DD
:101F830010AF08F518400C15198008F51840021514
:101F930019D2AF2200C0D0251810AF08F518500C85
:101FA30005198008F51850020519D2AFD0D02225A3
:101FB30018F58210AF08F518400C15198008F518AC
:101FC30040021519D2AF85198322C5822518C5820F
:101FD300C583351910AF07F5198582188007F519E0
:101FE300858218D2AFC583222518F582E43519F509
:101FF30083222518F8E43519F9222518FAE435194E
:10200300FB222518FCE43519FD22E4732518C5824B
:10201300C0E0E51934FFC583C0E0E518C395822409
:10202300F810AF0885831985821880088583198580
:102033008218D2AFCEF0A3E520F0A37808E608F02B
:10204300A3DEFAEFF0A3E58124FAF8E608F0A3E6AD
:1020530008F0A3E608F0A30808E608F0A3E608F0F2
:10206300A315811581D0E0FED0E0F8158115811507
:1020730081E8C0E0EEC0E0222518C582C0E0E51982
:1020830034FFC583C0E0E518C3958224F910AF0877
:102093008583198582188008858319858218D2AFB4
:1020A300CEF0A3E520F0A37808E608F0A3DEFAEF6C
:1020B300F0A3E58124FBF8E608F0A3E608F0A30803
:1020C30008E608F0A3E608F0A315811581D0E0FE29
:1020D300D0E0F815811581E8C0E0EEC0E022851953
:1020E30083851882E0A3FEE0A3F5207808E0A3F639
:1020F30008DFFAE0A3FFE0A3C0E0E0A3C0E0E0A3B1
:10210300C0E0E0A3C0E0E0A3C0E010AF0885821800
:102113008583198008858218858319D2AFD083D02F
:102123008202011F851983851882E0A3FEE0A3F5CF
:10213300207808E0A3F608DFFAE0A3FFE0A3C0E0FD
:10214300E0A3C0E0E0A3C0E0E0A3C0E010AF0885D7
:1021530082188583198008858218858319D2AFD0A8
:1021630083D08222C0D02518C582C0E0E51934FF90
:10217300C583C0E0E518C3958224F310AF088583B7
:10218300198582188008858319858218D2AFC8F013
:10219300A3E9F0A3EAF0A3EBF0A37908E709F0A31E
:1021A300D8FAECF0A3EDF0A3EEF0A3EFF0A3D0E0A8
:1021B300F0A3D0E0F0A3D0E0F0A3E520F0A3E5F096
:1021C300F0A322851983851882E0C0E0A3E0F9A378
:1021D300E0FAA3E0FBA37808E0F608A3DFFAE0FC4B
:1021E300A3E0FDA3E0FEA3E0FFA3E0C0E0A3E0C003
:1021F300E0A3E0F5D0A3E0F520A3E0A3F5F010AF52
:10220300088583198582188008858319858218D2E9
:10221300AFD082D083D0E0F8D0E0327404800A7467
:10222300038006740280027401C0E0F404121FB23A
:10223300D0E0121E7A2274048008740380047402AE
:102243008000CCC0E0EDC0E0E518C39CCCAD1950D4
:10225300011D10AF068C188D1980068C188D19D2AC
:10226300AF121E87D0E0FDD0E0FC22D083D082E9FC
:10227300C0E0E493A3C386F0C5F095F0F908E493B6
:10228300A386F0C5F095F0700BE493A3C3994005C2
:10229300E9048002A3E475F002A42582F582E5F047
:1022A3003583F583D0E0F9E493A3C0E0E493C0E081
:1022B30022D083D082ECC0E0EDC0E0E493A3FCE441
:1022C30093A3FDED4C600D122300EC24FFFCED34D1
:1022D300FFFD80EFE493A3FCE493A3FDED4C600DBD
:1022E30012233FEC24FFFCED34FFFD80EFD0E0FD33
:1022F300D0E0FCE493A3C0E0E493C0E022C0E0C3D9
:10230300E49396087401939618400FE4936670085B
:1023130008740193661870007019A3A3C3E493961D
:10232300087401939618A3A3400DD0E0D0E0D0E049
:102333000222F0A3A3A3A3A3A3D0E022C0E0C0F092
:1023430088F0E4936670080874019366187000A817
:10235300F0A3A3700BD0F0D0E0D0E0D0E00222F0E5
:07236300A3A3D0F0D0E0229B
:10236C0074F612207BEAFEEBFF8C088D09EE243408
:10237C00F8E43FF9E8FCE9FD12249EE0FAEE24377C
:10238C00F582E43FF583E0F88508F0A4C885F00AEF
:10239C008509F0A4250AF9EA28F8E439F97A257BAD
:1023AC0000121EF6EA8C828D83F0FA131313541F5D
:1023BC00F8EE28F8E43FF9E8245DF582E439F5837A
:1023CC00E0C0E074075AF8D0E0B800028004C313F0
:1023DC00D8FCA2E05003EA8020EE2436F582E43FDC
:1023EC00F583E0F5F0EA84A8F0EE28F8E43FF9E88C
:1023FC002438F582E439F583E0F97F030221277450
:10240C00F512207BEAFEEBFFEE2434F582E43FF577
:10241C0083E0C0E012249ED0E0F08E828F83A3A3D1
:10242C00A3A3A3E0FAA3E0FB8E828F83A3A3A3A3B1
:10243C00A3A3A3E0C39AF508A3E09BF509EE247FC0
:10244C00F8E43FF9880A890B8882F583E06401700F
:10245C002CEE2480F582E43FF583EA2401F8E43B7A
:10246C00F9E0687003A3E06970137CBC7D04EEFA9C
:10247C00EFFB120F12850A82850B83E4F0AC08ADDA
:10248C0009EEFAEFFB12236CE9F9122D077F040217
:10249C002127EE2435F582E43FF58322C082C083E8
:1024AC00851882851983E0F8A3E0F9C3EA9CEB9DBB
:1024BC005010C3EC98ED99401BC3EA98EB9950145B
:1024CC00800EC3EA98EB994007C3EC98ED99400451
:1024DC00790180027900D083D08222EAC39CFAEB86
:1024EC009DFB2274ED12207B900381E06408600553
:1024FC00E06407702C9061C8E060269003AFE0F8B0
:10250C0074FF68601CE875F00BA4C8AAF02AF97473
:10251C00B128FE740339FF8E828F83A3A3A3E070CE
:10252C00057900022688EE2468F50EE43FF50F903D
:10253C006060E0850E82850F83F075102C75110597
:10254C00750800750900E5D914F50AE5D95403F5A9
:10255C000B601FEE2483F50CE43FF50D7403650B43
:10256C006059E50A6017EE2467F582E43FF583E0D5
:10257C00700B793DEEFAEFFB120F4280A490052709
:10258C00E064016023850C82850D83E060047A048D
:10259C0080027A00E50AC39AFA95E0FB120D988A3C
:1025AC00088B09EA4509700612119A02252D850C33
:1025BC0082850D83E070048A108B117A008014E5FB
:1025CC00D9C0E0EAF8E51028F582E43511F583D09E
:1025DC00E0F00AEAC3950A40E6850C82850D83E09B
:1025EC00602874FC250AF50A7810122226AC0AA978
:1025FC000BEEFAEFFB120FF07402121F97E9700A40
:10260C00AA08AB0912178E02257E7403650B605461
:10261C00850A0C750D00780C122226AC10AD11AA8F
:10262C0008AB09120FB47402121F97850E82850F26
:10263C0083E0F87480687005750C7F8002880CE567
:10264C000CF50D780D12222A780B12222AA90AAC4D
:10265C0008AD099003AFE0FA7B00120BD0740212A4
:10266C001F978013900381E06408600BAC10AD11D0
:10267C00EEFAEFFB1210861211A679017F0C0221E3
:10268C002774F312207B74FC121F81EAFEEBFF8986
:10269C0009A2AFE433F508C2AFEE2463F50AE43FB8
:1026AC00F50B8010AA0AAB0B120F6C12178E90044C
:1026BC00C3E004F0850A82850B83E0F8A3E0F9E817
:1026CC0049602DE82402FAE439FBEA2402F50CE413
:1026DC003BF50D780C1222268A828B83E0FCA3E05A
:1026EC00F9EEFAEFFB120F607402121F97E960B457
:1026FC009004C3E0604D9004C4E0F89004C3E0C3C0
:10270C0098500C74026509703A9004C5E060348EE0
:10271C00828F83A3A3A3A3E0851882851983122734
:10272C005F7402121FEBE812275F9004C2E028F0DE
:10273C007402122005AA18AB197901120C2490040A
:10274C00C3E4F0E508A2E092AF7404121F977F0671
:10275C00022127F0A3E4F09004C3E0F8220000006B
:10276C008521878522C622C0E074EB122167A2AFB7
:10277C00E433F508C2AF759B00906182E0A2E05093
:10278C0030E591A2E0502A7591FE7401652170210B
:10279C001229061210E01228F4122239122AB174EE
:1027AC0004121F97E964017005790112112E12248D
:1027BC00EF906182E0A2E5505DE591A2E55057757E
:1027CC0091DF900381E064076005E06408702F12CC
:1027DC00290674016521703E1210E01228F41222B1
:1027EC0039122AB17404121F97E96401700579013A
:1027FC0012112E7901EEFAEFFB12268D8018E0648F
:10280C000D70139003A3E004F064287002E4F07AD6
:10281C0000E0F91211AC906182E0A2E640030228BC
:10282C00C9E591A2E640030228C97591BF900381C6
:10283C00E0640570081210C81210D480031210CE78
:10284C0075210012113AE9900382F0790012112ED1
:10285C00120E7C7A017B00900380E0F912175E90D7
:10286C007803E06442705690052BE014F0704EC271
:10287C00AF12288000782AD0E0F618D0E0F6E59F59
:10288C005407F87005750DFF8003750D7FC4C0E00B
:10289C007829E6F50A08E6550DF50B740B780A1243
:1028AC001F5FD0E0250AF8906270E0A2E740F8E8DC
:1028BC00C333906272F0906270E0D2E0F09061816C
:1028CC00E0A2E35009E5E9A2E3500375E9F7A3E0C0
:1028DC00A2E75009E591A2E7500375917FE508A2A4
:1028EC00E092AF7F080221C68E828F83E0F8A3E0CE
:1028FC00C82416F582E438F583229003AFE0F8750E
:10290C00F00BA4C8AAF02AF974B128FE740339FF9D
:10291C0022C0E0C0D0C082C083906183E0A2E050AE
:10292C0009E5BFA2E0500375BFFEE0A2E15009E546
:10293C00BFA2E1500375BFFDE0A2E25009E5BFA2C2
:10294C00E2500375BFFBE0A2E35009E5BFA2E350E0
:10295C000375BFF7E0A2E45009E5BFA2E45003758C
:10296C00BFEFE0A2E55009E5BFA2E5500375BFDF5C
:10297C00E0A2E65009E5BFA2E6500375BFBFD083C5
:10298C00D082D0D0D0E032C0E074F2122167E5A73B
:10299C00A2E4500FE5A1A2E4500953A7EF75A1EFF3
:1029AC001229E7E5A7A2E5500CE5A1A2E5500653D4
:1029BC00A7DF75A1DFE5A7A2E15009E5A1A2E150CF
:1029CC000375A1FDE5A7A2E2500CE5A1A2E2500619
:1029DC0053A7FB75A1FB7F010221C674F812207B63
:1029EC00752101900381E0640670077A007B001268
:1029FC0010B0A2AFE433FED2AF900387E064017055
:102A0C00187A207B00900380E0F91218727A207BF0
:102A1C0000900380E0F9121764906182E0D2E6F036
:102A2C00900528E0602185C6228016900386E0641C
:102A3C00017008E5C654F84405F5C653BEFC1227D0
:102A4C006C7401652160E4EEA2E092AF7F0102217B
:102A5C00270000008E238F248582288583278518E4
:102A6C0082851983E0CEA3E0CF852882852783EB6E
:102A7C00C9EAC8EDCBECCA75F010C3E833C8E9332A
:102A8C00C9EA33CAEB33CBC3EA9EF526EB9FF52597
:102A9C00B35004AB25AA26EC33CCED33CDD5F0DA0C
:102AAC00AE23AF242274F112207B8A088B098C0A86
:102ABC008D0B90901A7808121DFF740F121FEB7873
:102ACC000C121E3890901A780C121DFF7808790C95
:102ADC00121BF090903A50107808790C121DBF78A8
:102AEC0008121C104014800E780C7908121DBF7847
:102AFC000C121C1050047901800279007F0802210D
:102B0C002774ED12207B8A088B098C0A8D0B909010
:102B1C001A7808121DFF7413121FEB780C121E3852
:102B2C0090901A780C121DFF780C7908121BF0404B
:102B3C00117808790C121DBFAA08AB09AC0AAD0BB1
:102B4C008022751000751100751200751301781034
:102B5C00790C121DBF78107908121D86AA10AB11C2
:102B6C00AC12AD137F0C02212790901A7808121E1C
:102B7C00388A828B837808121E127F0402212774F4
:102B8C00F512207B8C828D837808121E388A828BFA
:102B9C00837808121DEB122BDFC3E098F0A3E099A9
:102BAC00122BD1401E90909E7808121E388A828B70
:102BBC00837808121DAC8E828F83E02420F0A3E072
:102BCC00344EF080A4F08E828F83C3E09420A3E077
:102BDC00944E22EA2404F8E43BF9E8FEE9FF8C82E7
:102BEC008D83A3A3A3A3E0F8A3E0F98E828F8322A5
:102BFC0074F512207BE9FE9004DEE0FAA3E0FBEE14
:102C0C0029F8E433F9743728F582748F39F583E0A9
:102C1C002AF508A3E03BF509780812222690904E7D
:102C2C00121E56122A607402121F978A088B098C86
:102C3C000A8D0B74107808121D4EAA08AB097F047C
:102C4C0002212774F112207B8A0C8B0D8C0E8D0FB8
:102C5C007411121FEB1222417411121FEBE02401AC
:102C6C00F508A3E03400F509E4F50AF50B780C79C6
:102C7C0008121C5F90902E7808121E38780C790878
:102C8C00121C5FAA0CAB0DAC0EAD0F122A607402B5
:102C9C00121F978B09EA450960047A0180027A00B9
:102CAC00EC2AFCE43DFD7413121FEBE0F8A3E0F9F1
:102CBC00E8FEE9FFECF8EDF97A717B02121EF6885A
:102CCC00088909E4F50AF50B8E828F837808121EA9
:102CDC0047ECF8EDF97A717B02121EF68A088B0923
:102CEC0074057808121F6E8E828F83A3A3A3A3E5AD
:102CFC0008F0A3E509F07F08022127C082C083E910
:102D0C00906000F0D083D08222C0E074F212216770
:102D1C00A2AFE433FED2AFC2C0E5D1A2E450067537
:102D2C00D10F1215A8EEA2E092AF7F010221C6C00E
:102D3C00E074F2122167A2AFE433FED2AFE58AA2AF
:102D4C00E1500790083FE0D2E0F0758A00C2EB7AC0
:102D5C00107B0090083BE0F912175EEEA2E092AFF8
:102D6C007F010221C6C0E0C0D0E8C0E0E9C0E0A904
:102D7C00A8D2AFC2C7E9A2E7E433F8E9A2E792AF61
:102D8C00D0E0F9D0E0F8D0D0D0E032C0E0C0D0E84C
:102D9C00C0E0E9C0E0EAC0E0C082C083A2AFE43387
:102DAC00FAD2AF9009EAE0F8A3E0687008539AF7FA
:102DBC00A374018022C2EA9009EAE0F8740128F0B9
:102DCC00746A28F582E43409F583E0F5F99009EA90
:102DDC00E0C394804002E4F0EAA2E092AFD083D04A
:102DEC0082D0E0FAD0E0F9D0E0F8D0D0D0E032C216
:102DFC00AF02000022C0E074EF122167A2AFE433EF
:102E0C00FCD2AF7480659E70FA90620F7403F0E090
:102E1C00A2E750FB906206E0FA74065A7006E58B46
:102E2C00A2E55042EAA2E25033901846E0F8A3E043
:102E3C00E890620B122ECD74047808121F5FE5081F
:102E4C00906207122ECD74097808121F5FE50854A2
:102E5C003E906209F0906201E0D2E0F0EAD2E1FA31
:102E6C00901848E48016EAA2E0501290620FE0C27B
:102E7C00E1F0E0A2E740FB9018487401F090620288
:102E8C00E0F508906204E0F50A750900740478080E
:102E9C00121F6EEA4508FA750B007409780A121FA6
:102EAC006EEAF8E509450BF9901844E048F0A3E008
:102EBC0049F0758B00C2E8ECA2E092AF7F040221CE
:102ECC00C6F0901846E0F508A3E0F5092202011FB0
:102EDC00FFFFFFFFFFFFFFFF75C90043C908020199
:102EEC001F75C9A075C95002011F74F012200F8AFA
:102EFC00088B098C0A8D0B750C00750D00750E0076
:102F0C00750F008008909042780C121D9978087902
:102F1C000C121BF040EF8003121F977F080220E178
:102F2C0074F412200F9090BE121E56121926901A8D
:102F3C00C37808121E3874187808121D4EA9089010
:102F4C0090BE121E56121920901AC37808121E3801
:102F5C0074107808121D4EA9089090C2121E5612B9
:102F6C001920901AC37808121E38A9099090C6121D
:102F7C001E56121920901AC37808121E38A90890F0
:102F8C0090CA121E56121920901ACB7808121E38AD
:102F9C0074187808121D4EA9089090CE121E561265
:102FAC001920901ACB7808121E3874107808121D4C
:102FBC004EA9089090D2121E56121920901ACB7856
:102FCC0008121E38A9099090BA121E561219209098
:102FDC001ACB7808121E38A9089090DA121E5612D5
:102FEC001920900FD3E0F99090DE121E5612192082
:102FFC00900FD5E0F99090E2121E56121920901BFA
:10300C0069E0F99090E6121E5612192079119090F1
:10301C00EA121E56121920790B9090EE121E5612BF
:10302C001920901B76E0F99090F2121E561219207E
:10303C00901B77E0F99090F6121E56121920901BF7
:10304C0078E0F99090FA121E56121920901B79E034
:10305C00F99090FE121E56121920901B7AE0F990EE
:10306C009102121E56121920901A5AE0F9909106EC
:10307C00121E56121920901B75E070031216500286
:10308C00374774F412200F900FC8121E56121926CF
:10309C00901AC37808121E3874187808121D4EA99D
:1030AC0008900FC8121E56121920901AC3780812D5
:1030BC001E3874107808121D4EA908900FC8780895
:1030CC00121E389090427808121D99AA08AB09ACD0
:1030DC000AAD0B121920901AC37808121E38A909D0
:1030EC00900FC87808121E3890910A7808121D9912
:1030FC00AA08AB09AC0AAD0B121920901AC37808B8
:10310C00121E38A908900FC87808121E3890910E1C
:10311C007808121D99AA08AB09AC0AAD0B1219203C
:10312C00901ACB7808121E3874187808121D4EA904
:10313C0008900FC87808121E389091127808121D4A
:10314C0099AA08AB09AC0AAD0B121920901ACB78CE
:10315C0008121E3874107808121D4EA908900FC85A
:10316C007808121E389091167808121D99AA08AB8F
:10317C0009AC0AAD0B121920901ACB7808121E3824
:10318C00A909900FC87808121E3890911A78081265
:10319C001D99AA08AB09AC0AAD0B121920901ACBD9
:1031AC007808121E38A908900FC87808121E38909B
:1031BC00911E7808121D99AA08AB09AC0AAD0B1226
:1031CC00192012362D121E389091227808121D9952
:1031DC00AA08AB09AC0AAD0B121920900FD5123608
:1031EC0030121E389091267808121D99AA08AB0946
:1031FC00AC0AAD0B121920901B69123630121E3816
:10320C0090903E7808121D99AA08AB09AC0AAD0B38
:10321C001219207911900FC87808121E3890912A33
:10322C007808121D99AA08AB09AC0AAD0B1219202B
:10323C00900FC87808121E3890912E7808121D999C
:10324C00901B6FE064087004A3E06407600E901B91
:10325C006FE0642C7004A3E064017004790B8002AD
:10326C007900AA08AB09AC0AAD0B121920900FDF3C
:10327C00E06401701D7900900FC87808121E389018
:10328C0091327808121D99AA08AB09AC0AAD0B1241
:10329C001920901B76123630121E38909136780811
:1032AC00121D99AA08AB09AC0AAD0B121920901B80
:1032BC0077123630121E3890913A7808121D99AA5E
:1032CC0008AB09AC0AAD0B121920901B78123630E2
:1032DC00121E3890913E7808121D99AA08AB09ACC1
:1032EC000AAD0B121920901B79123630121E389031
:1032FC0091427808121D99AA08AB09AC0AAD0B12C1
:10330C001920901B7A123630121E389091460237D3
:10331C003774F412200F900FC8121E5612192690F3
:10332C0090BE7808121E38900FC87808121BDB70FC
:10333C000A900FC8E4F0A37410803990914A780871
:10334C00121E38900FC87808121BDB700A900FC839
:10335C00E4F0A37420801D90914E7808121E3890D2
:10336C000FC87808121BDB900FC87005123C338015
:10337C0007E4F0A3F0A37402123C2E900FC8121EA7
:10338C0056121926901AC37808121E387418780829
:10339C00121D4EA908900FC8121E56121920901A11
:1033AC00C37808121E3874107808121D4EA90890A4
:1033BC000FC87808121E389090427808121D99AAEE
:1033CC0008AB09AC0AAD0B121920901AC37808127D
:1033DC001E38A909900FC87808121E3890910A78E7
:1033EC0008121D99AA08AB09AC0AAD0B1219209052
:1033FC001AC37808121E38A908900FC87808121E34
:10340C003890910E7808121D99AA08AB09AC0AAD38
:10341C000B121920901ACB7808121E3874187808E1
:10342C00121D4EA908900FC87808121E38909112E0
:10343C007808121D99AA08AB09AC0AAD0B12192019
:10344C00901ACB7808121E3874107808121D4EA9E9
:10345C0008900FC87808121E389091167808121D23
:10346C0099AA08AB09AC0AAD0B121920901ACB78AB
:10347C0008121E38A909900FC87808121E389091AE
:10348C001A7808121D99AA08AB09AC0AAD0B1219CF
:10349C0020901ACB7808121E38A908900FC878080B
:1034AC00121E3890911E7808121D99AA08AB09AC0F
:1034BC000AAD0B12192012362D121E38909122785B
:1034CC0008121D99AA08AB09AC0AAD0B1219209071
:1034DC000FD5123630121E389091267808121D998D
:1034EC00AA08AB09AC0AAD0B121920901B69123655
:1034FC0030121E3890903E7808121D99AA08AB091C
:10350C00AC0AAD0B1219207922900FC87808121E44
:10351C003890912A7808121D99AA08AB09AC0AAD0B
:10352C000B121920900FC87808121E3890912E7823
:10353C0008121D99901B6FE064087004A3E06407E7
:10354C00600E901B6FE0642C7004A3E064017004A7
:10355C00790B80027900AA08AB09AC0AAD0B1219E1
:10356C0020900FDFE06401701D7900900FC878087F
:10357C00121E389091327808121D99AA08AB09AC2A
:10358C000AAD0B121920901B76123630121E389091
:10359C0091367808121D99AA08AB09AC0AAD0B122A
:1035AC001920901B77123630121E3890913A7808F9
:1035BC00121D99AA08AB09AC0AAD0B121920901B6D
:1035CC0078123630121E3890913E7808121D99AA46
:1035DC0008AB09AC0AAD0B121920901B79123630CE
:1035EC00121E389091427808121D99AA08AB09ACAA
:1035FC000AAD0B121920901B7A123630121E38901D
:10360C0091467808121D99AA08AB09AC0AAD0B12A9
:10361C001920901A5A123630121E389091520237D5
:10362C0037900FD3E0F9900FC878082274F4122069
:10363C000F12551A900FDCF0A3F0800D900FDCC325
:10364C00E09419A3E094005004D284803C900FDCE9
:10365C00E064197002A3E0701CC284C28390903E97
:10366C00121E56121638D28390903E121E56121607
:10367C0038C2838014900FDCC3E09447A3E094001D
:10368C004007900FDCE4F0A3F0900FDC125582128F
:10369C001632901ACF121E5612192690915678088F
:1036AC00121E38901ACF7808121DAC90915A7808D7
:1036BC00121E38901ACF7808121C0050030236489C
:1036CC00901AC312551D901AC712551E901ACB1280
:1036DC00551E901ACF12551E900FD3F0900FD5F0A7
:1036EC00901B690412372C70077408F0A314800621
:1036FC00742CF0A37401F0900FDFE4F0901B76743F
:10370C00FFF0A37403123C2E901B7974FFF0A3F00E
:10371C0012164AC290D28612163280FBE9901068BB
:10372C00F0901015E06401901B6F227808121D991F
:10373C00AA08AB09AC0AAD0B1219207F040220E1D8
:10374C0074F012200F7508E075090F780812222604
:10375C0090908E122239900FC8121E5612193E7478
:10376C0006121F97900FE3123D28900FE21255415D
:10377C007408780C121D677808790C121D86900F4E
:10378C00E11238DC121D677808790C121D86900F37
:10379C00E01238D1121D677808790C121D86901A28
:1037AC00C37808121E47900FE7123D28900FE6E0F1
:1037BC00F50CE4F50F7408780C121D677808790C79
:1037CC00121D86900FE51238DC121D677808790CF3
:1037DC00121D86900FE41238D1121D677808790CEF
:1037EC00121D86901ACB7808121E47901ACB121E07
:1037FC0062901AC7121E6E900FD37401F0900FE9ED
:10380C00E0900FD5F0900FEAE0901B69F0900FEE6E
:10381C00E0901B76F0900FEFE0901B77F0900FF09C
:10382C00E0901B78F0900FF1E0901B79F0900FF284
:10383C00E0901B7AF0900FF3E0901A5AF0900FEB97
:10384C00E064227006901B75E07005121650800320
:10385C00121644900FECE090101560141237307073
:10386C00077408F0A314801B742CF0A3740180134C
:10387C0012373070087428F0A3742380067458F043
:10388C00A37402F0900FEDE0F4900FDF600474016C
:10389C008001E4F075088575090A780812222690D3
:1038AC00915E122239901ACB7808121E3890908AA9
:1038BC007808121D99AA08AB09AC0AAD0B12193E77
:1038CC007406022F24E0F50CE4F50E7418780C2223
:1038DC00E0F50CE4F50D7410780C2274F612200F40
:1038EC0074EC121F81E9900A83F07A807B16121611
:1038FC00CE7C0A7D007A1F7B001207DA8518828540
:10390C0019837401F0740E121FEBE4F0A3F004128F
:10391C001FEB7401F0740C121FEB123C2C740A1286
:10392C001FEB123C2C7408121FEB7404123C2E7407
:10393C0002121FEB74E8F0A3740312587279017A27
:10394C0005FB12188A740E12200579027A067B0385
:10395C0012188A7C707D1A790D7A077B0312188AEB
:10396C00901015E0640170177C607D1A79097A0853
:10397C007B0312188A901B6F7408F0A31480167CBA
:10398C00697D1A79077A087B0312188A901B6F7469
:10399C002CF0A37401F0740112200579017A107BCC
:1039AC000312188A740C12200579027A117B031207
:1039BC00188A740A12200579027A127B0312188A6B
:1039CC00740812200579027A137B0312188A740288
:1039DC0012200579027A147B0312188A901015E0D4
:1039EC006401700C901A837442F07C7D7D1A800AFD
:1039FC00901A967442F07C927D1A7A15790012090D
:103A0C00787410121FEB123C3D04121FEB7401F082
:103A1C00851882851983E4F07407121FEB7403F088
:103A2C007406121FEB7401F07405121FEB7401F095
:103A3C007404121FEBE4F07402121FEB7410F0A369
:103A4C007427F0741012200579047A087B04121480
:103A5C0010740112200579017A007B04121410AC49
:103A6C0018AD1979017A027B041214107407122014
:103A7C000579017A037B041214107406122005795F
:103A8C00017A067B04121410740512200579017A50
:103A9C000D7B04121410740412200579017A0F7B2B
:103AAC0004121410740212200579027A017B04129C
:103ABC00141085188285198374061258727A01794C
:103ACC00011206AE1216B67C817D1B7AA77B1A12E8
:103ADC0015BA900A83E0F91216EC7A0079031215E4
:103AEC005A75FD587580037900120BAC7900120BD6
:103AFC00B27A017B00900A83E0F912175E7A407B60
:103B0C0000900A83E0F912175E90110F121E62905A
:103B1C000EB1121E6E121944901004E06401700371
:103B2C001213F812162C12194A7508F575090F782C
:103B3C00081222269090BE121E56121938740212C8
:103B4C001F977508F675090F780812222690914A6E
:103B5C00121E561219387402121F977508F7750940
:103B6C000F780812222690914E121E561219387494
:103B7C0002121F977508F875090F78081222269003
:103B8C009082121E561219387402121F97750885EE
:103B9C0075090A780812222690915E1222399090AB
:103BAC007E121E5612193E7406121F9778081222A6
:103BBC002690915E12223990907A121E5612193E5E
:103BCC007406121F97900FF5E0F46008900FC8E48C
:103BDC00F0A3801CA3E0F4600A900FC8E4F0A37477
:103BEC0010800DA3E0F4600E900FC8E4F0A37420D5
:103BFC00F0A37402800BA3E0F4900FC8600B123C8E
:103C0C0033123C2E121656800DE4F0A3F0A374026E
:103C1C00123C2E12163E7414121F977F020220E1E2
:103C2C007418F0A3E4F022E4F0A374F0F0A3741F72
:103C3C0022E4124321F02274F412200F74FF121F9D
:103C4C0081E9FE851882851983E4F0A818A91988E2
:103C5C000889097808122226901AC3121E561219C6
:103C6C00387402121F97851882851983E0F460035B
:103C7C00023D0E900FD0E06003023D20900EBBE0A1
:103C8C00900EBE6003023D15E06032900EBDE070F8
:103C9C002C901AC3121E62900FCC121E6E900EBE88
:103CAC00123D28901AC37808121DAC900EBD7401F9
:103CBC00F07A047B00900A83E0F912175EEEF9901B
:103CCC001AC3121E561219209090427808121E38F0
:103CDC00901AC37808121DAC9090827808121E3886
:103CEC00901AC37808121C004006901AC312551D76
:103CFC00901AC77808121E38901AC37808121BDB6A
:103D0C007012900FD07401800A12554CEEF0900E88
:103D1C00BEE004F07401121F97023747E0F508E487
:103D2C00F509F50AF50B2274F712200FE9FE740160
:103D3C006E7019901002E07064A2824060901B7942
:103D4C00E0A2E65058901002740E803A74026E7025
:103D5C0019901002E07046A2824042901B79E0A2BA
:103D6C00E7503A901002740F801C74036E702E9002
:103D7C001002E07028A2824024901B7AE0A2E0504E
:103D8C001C9010027410123E811222397A087B00AA
:103D9C00900A83E0F91218667404121F970258BD3A
:103DAC0074F412200F90101A121E62E8494A4B70DC
:103DBC000C901113121E6290101A121E6EA28150DA
:103DCC0058900FD9E0703E901002E07038A28240FB
:103DDC0034901B79E0A2E5502C9010077401125519
:103DEC001270069010067401F0901002740B123EC3
:103DFC00811222397A087B00900A83E0F912186646
:103E0C007404121F97900FD97401F0901AD3741088
:103E1C00F0A374271242FD804E901AD3121E62E852
:103E2C00494A4B604290909E7808121E38901AD3E3
:103E3C007808121DAC121EA87808121E38E5084529
:103E4C0009450A450B7020900FD9E41255127006E3
:103E5C009010067401F0901007E4F0901113121EEC
:103E6C006290101E121E6E023747900EB77464F0EB
:103E7C009010027409F0901003740112550522740D
:103E8C00E812200F74F8121F81A285402390100DA8
:103E9C00E0701D901011C3E094BCA3E09402500894
:103EAC00901011125575801490100D7401F080064D
:103EBC0090100DE07007901011E4F0A3F0901B77B8
:103ECC00E0FD7404121FEBE4F0A3ED1242FD901B15
:103EDC0078E08518828519831254E4851882851937
:103EEC00837810121E3874107810121D67901B7690
:103EFC00E0F514E4F515F516F517A287402A901095
:103F0C000EE07024901013C3E094BCA3E094025014
:103F1C0008901013125575801B90100E7401F090C0
:103F2C001013E4F0A3F0801790100EE0700A9010BC
:103F3C0013E4F0A3F002406E6401600302406E9043
:103F4C001005E0600302406E124313121E25740428
:103F5C00121FEB7808121E389010167808121E25C6
:103F6C009010167810121E25901B7D780C121E389E
:103F7C007401780C121D67901016121E62E8494AE3
:103F8C004B700302406E901B7D7808121E38901007
:103F9C00167808121BDB701E9010057401F090103F
:103FAC001080097401780C121D4EE004F0E50CA28F
:103FBC00E050F00241C6901016780C121C00404CD8
:103FCC007A14901016850C08850D09850E0A850F3C
:103FDC000B7808121DFF7808790C121BC670209004
:103FEC001B7D780C121E471242EF80097401780C6D
:103FFC00121D4EE004F0E50CA2E050F00241C67434
:10400C0001780C121D671AEA605880B6750C0175A0
:10401C000D00750E00750F007A14901016850C08A3
:10402C00850D09850E0A850F0B7808121DFF78087F
:10403C00790C121BC67020901B7D780C121E471237
:10404C0042EF80097401780C121D4EE004F0E50C6F
:10405C00A2E050F00241C67401780C121D671AEAF6
:10406C0070B890100DE06401600302421F901005BF
:10407C00E0600302421F124313121E257404121F28
:10408C00EB7808121E389010167808121E25851829
:10409C0082851983780C121E389010167810121E17
:1040AC0025901016121E62E8494A4B700302421FFB
:1040BC00901B7D7808121E389010167808121BDBA6
:1040CC00701C9010057401F0901010800974017828
:1040DC000C121D4EE00412432850F20241C690907F
:1040EC00427808121E38901B7D7808121BDB602961
:1040FC00901B7D7808121E38901016C08290909EEE
:10410C007808121D99758310D0827808121DFFE56E
:10411C00084509450A450B7058750C00750D00755E
:10412C000E08750F007A14901016850C08850D0971
:10413C00850E0A850F0B7808121DFF7808790C1272
:10414C001BC6701D901B7D780C121E4712430480F9
:10415C00097401780C121D4EE00412432850F280B1
:10416C00597401780C121D4E1AEA700302421F801A
:10417C00B6901B7D780C121E387401780C121D4EF3
:10418C007A14901016850C08850D09850E0A850F7A
:10419C000B7808121DFF7808790C121BC6706690FC
:1041AC001B7D780C121E4712430480097401780C95
:1041BC00121D4EE00412432850F2E024FFFCE434BC
:1041CC00FFFD3395E0FE901022ECF0A3EDF0A3EE92
:1041DC00F0A3F09010227808121E38740D78081293
:1041EC001D679010227808121E4790907E78081256
:1041FC001E389010227808121DAC75F00790101024
:10420C00E0A4F0800E7401780C121D4E1AEA6003C3
:10421C0002418E901004E06401705F90100DE06418
:10422C0001600890100EE06401704F901005E06082
:10423C004964017015901022121E56901010E0F96E
:10424C001213E69010057402802FE064C87017906A
:10425C001010E0F91213EC1213F290100D7402F01E
:10426C0090100EF0801CE0C39402400E901010E0F1
:10427C00F91213EC901005E004F090100DE06402BC
:10428C007013A285500F90100DE4F0901011F0A354
:10429C00F0901005F090100EE064027010A28750A0
:1042AC000CE4F0901013F0A3F0901005F0901004B3
:1042BC00E0702690100DE06401600890100EE06430
:1042CC0001701690100D7402F090100EF0C28690D2
:1042DC000EB614F0901B7CE4F07408121F977F103C
:1042EC000220E190100F7401F0901005F090101066
:1042FC0022F0A3E4F0A3F02290100F7402F09010BF
:10430C000514F090101022901016124320F090100B
:10431C0016781422E4F0A3F0A3F0A322F0850C0885
:10432C00E508A2E02274EC12200F7582F57583FE6D
:10433C00121FCDEAFEEBFF750A0054807003024396
:10434C00FB900A83E0F91217468A088B09EA4509A3
:10435C0070030243F38A828B83E02450600624F0BE
:10436C006015807CA3A3A3A3E0F9EA2405FAE43545
:10437C0009FB120A988069A3A3A3E0A2E050619004
:10438C009076C082901113780C121E38901083789E
:10439C000C121DD3758390D082780C121C105040D7
:1043AC00900EB6E0702E901008E07028C286900E29
:1043BC00B67401F0901008F0901B7CE4F09090968D
:1043CC001222397A207B00900A83E0F91218667465
:1043DC0004121F97901113121E62901083121E6EFE
:1043EC00AA08AB09121734EEFAEF64800254CFEE30
:1043FC00A2E050066401FA0254D65420606EA291D9
:10440C00501F90903E1222397A207B00900A83E054
:10441C00F91218667404121F979010091243208029
:10442C00449090427808121E389010097808121D9A
:10443C00AC9091167808121E389010097808121C4E
:10444C0000501990903E1222397A207B00900A83FA
:10445C00E0F91218667404121F97800A9010091262
:10446C003C3D901008F0EE64200254CDEE544070A8
:10447C0003024FB6A2914008901AC1E06401706229
:10448C00900EB6E07010901AC1E064017008C286FC
:10449C00900EB67401F0A291503A901AC1E07034AB
:1044AC00900EB7E0C39414E0500404F08026C3943B
:1044BC00645021901002E0701BA2824017123E76CD
:1044CC001222397A087B00900A83E0F9121866747C
:1044DC0004121F9790110F121E62900EB1121E6ED5
:1044EC00800B900EB7E0C394635002E4F0900EB6CC
:1044FC00E06043C394145005E004F08039E4F0D23A
:10450C0086901AC1F0901B7CE0702B901A5AE064D4
:10451C000A7023900FD1E06401700512189C80166C
:10452C007412121FEB7401F0741212200579017AC7
:10453C00057B0312188A900FD4E0C394325005E027
:10454C000402462A909072780C121E38901AB87891
:10455C000C121BDB704712069C901AB8121E62904C
:10456C001ABC121E6E901AB87434F0A3740812425E
:10457C00FD900FD4F0900FD7E4F090906E780C1261
:10458C001E38901AB8780C121C00500302469890F2
:10459C000FD1E0640160030246B20246E712069CAA
:1045AC008A0C8B0DE4F50EF50F90906A7810121EA4
:1045BC0038780C7910121C5F740B780C121D4E900D
:1045CC009066780C121C105007901B7B746480351D
:1045DC00909062780C121C105007901B7B744B80CF
:1045EC002490905E780C121C105007901B7B743238
:1045FC00801390905A780C121C10901B7B500474F2
:10460C00198002740AF0901AB8121E62901ABC1229
:10461C001E6E901AB8780C121E47900FD4E4F090CE
:10462C009056780C121E38901AB8780C121C005048
:10463C003A900FD8E0702E901002E07028A28240C1
:10464C0024901B79E0A2E4501C901002740A123ED4
:10465C00811222397A087B00900A83E0F9121866DD
:10466C007404121F97900FD87401F0909052780C2C
:10467C00121E38901AB8780C121C004003024581A7
:10468C00900FD7E0C394965016E004F0900FD2E050
:10469C00C39414503DE004F079001216C8801890B1
:1046AC000FD6740180E5900FD2E0C3940540E6E08C
:1046BC00C3940A4023E4F0906200E0900EA7604D92
:1046CC00C3E09428A3E094005015900EA7125575E2
:1046DC008042E0C3942850DDE004F0790180BB9067
:1046EC000EA3E07021901002E0701BA28240171202
:1046FC0054FB1222397A087B00900A83E0F91218D5
:10470C00667404121F97900EA374018007E4F0A343
:10471C00F0900EA3F09009F0E06406706A900EAB76
:10472C00C082901A5AE0F875830ED082C3E098A329
:10473C00E094005009900EAB1255750247DD900FB6
:10474C00D1E0703C901002E07028A2824024901BB3
:10475C0079E0A2E2501C9010027406123E811222E3
:10476C00397A087B00900A83E0F9121866740412F7
:10477C001F97900E8BE07008901B7174281254E4F4
:10478C00900FD17401804A900FD1E06401702E908B
:10479C001002E07028A2824024901B79E0A2E35022
:1047AC001C9010027407123E811222397A087B0089
:1047BC00900A83E0F91218667404121F97900EABDE
:1047CC00E4F0A3F0900FD1F0901B71740A1242FD2B
:1047DC00A3F0900EBAE064017024900EBBE0700957
:1047EC00900FC4121E5612192C121932E9900EBBDE
:1047FC00F0700B900EBAE4F0900FD0F08006900E93
:10480C00BBE0700C900EBEE07006900EBCE4800510
:10481C00900EBC7401F0901789E064017027121996
:10482C0032E970219017897402F0901781780C127C
:10483C001E38909156780C121D99AA0CAB0DAC0E2B
:10484C00AD0F12192C901789E064027029121932DD
:10485C00E97023908F8A7408122005740A121E873F
:10486C00901789F074081220057A0A79031218EA55
:10487C009017B074DFF090181AE0640160030249DD
:10488C0096121932E96003024A4890181B780C12F0
:10489C001E38850C08A908901D9D780C121E3890A6
:1048AC009042780C121D99AA0CAB0DAC0EAD0F12E8
:1048BC00192090181B780C121E38850D09A9099027
:1048CC001D9D780C121E3890910A780C121D99AA15
:1048DC000CAB0DAC0EAD0F12192090181B780C12EE
:1048EC001E387410780C121D4E850C08A908901DEA
:1048FC009D780C121E3890910E780C121D99AA0CF2
:10490C00AB0DAC0EAD0F12192090181B780C121EAB
:10491C00387418780C121D4E850C08A908901D9D32
:10492C00780C121E38909112780C121D99AA0CABAF
:10493C000DAC0EAD0F12192090181B780C121E38EE
:10494C00E50D540FF9E50C496004790180027900FA
:10495C0090181B780C121E38740C780C121D4EE536
:10496C000C29901026F0601B901D9D780C121E389F
:10497C00909156780C121D99AA0CAB0DAC0EAD0F84
:10498C0012192C90181A74028078E0640270761256
:10499C001932E96003024A48901026E0C3940240A1
:1049AC002E901D9DC082901026125541740C780CCF
:1049BC00121D6775831DD082780C121D99AA0CAB41
:1049CC000DAC0EAD0F12192C901026E01480339004
:1049DC008F947408122005740A121E8790915678D1
:1049EC000C121E38901D9D780C121DAC90181AE4F8
:1049FC00F074081220057A0A79031218EA901B87C2
:104A0C007401F08037E064037032908F8074081268
:104A1C002005740A121E87901B87E0C0E0740A12EE
:104A2C001FEBD0E0F0901B87E004F090181AE4F034
:104A3C0074081220057A0A79031218EA90181FE0FC
:104A4C0064016003024E08901B87E4F090181F74F9
:104A5C0002F0750827750910780812222690911219
:104A6C001222399090B6121E5612193E7406121F5D
:104A7C009775081B75091878081222269091121246
:104A8C002239909012121E5612193E7406121F975C
:104A9C00901029E4F0A3F0747B121FF588088909A3
:104AAC00780812222690900E12223990900A121E2B
:104ABC005612193E7406121F97750800A808747BCD
:104ACC00121FEB12559C12169E1254ED949040EC52
:104ADC0090102B7494F0A37410F0A3741EF0A3E444
:104AEC00F0901006E064016003024BE8908F9E7416
:104AFC0008122005740A121E87901006F0901B767F
:104B0C00E0C0E07408121FEBD0E0F0901B77E0C01F
:104B1C00E07409121FEBD0E0F0901B78E0C0E07459
:104B2C000A121FEBD0E0F0901B79E0C0E0740B127E
:104B3C001FEBD0E0F0901B7AE0C0E0740C121FEB7E
:104B4C00D0E0F0901B6FE0642C7004A3E064016073
:104B5C000E901B6FE064087004A3E0640770097486
:104B6C000E121FEBE0D2E0F0901B69E064017009BB
:104B7C00740E121FEBE0D2E1F0900FD5E0640170DF
:104B8C0009740E121FEBE0D2E2F0900FD3E0640137
:104B9C007009740E121FEBE0D2E3F0900FDBE064AF
:104BAC00017009740E121FEBE0D2E4F0901007E0D4
:104BBC00C0E0740F121FEBD0E0F0901B7BE0C0E064
:104BCC007410121FEBD0E0F07411121FEB7401F093
:104BDC0074081220057A0A79031218EA900FD0E0B3
:104BEC006401702A901002E07024A28240207401AB
:104BFC00F0901003F0D2849090061222397A087B40
:104C0C0000900A83E0F91218667404121F97900F33
:104C1C00DBE064017003121650900EB8E064027071
:104C2C0038901AC3780C121E38901ACB780C121BC1
:104C3C00DB7005900EB8E4F0901002E0701BA282BD
:104C4C0040171254FB1222397A087B00900A83E039
:104C5C00F91218667404121F97900FD1E06401606A
:104C6C000B900EA3E064016003024D7C901AC37894
:104C7C000C121E38901AC7780C121BDB7003024DF5
:104C8C007C900EBCE06003024D7C900FDFE0600373
:104C9C00024D7C901AAC12558A7003A3E069700324
:104CAC00024D3D901AC3780C121E38901AC7780C1E
:104CBC00121BDB607C900E87E02485F508A3E034A2
:104CCC000AF5097808122226901AC7121E561219D4
:104CDC00387402121F97900E87125582C3940440A9
:104CEC0007900E87E4F0A3F0909042780C121E38D7
:104CFC00901AC7780C121DAC909082780C121E384A
:104D0C00901AC7780C121C004006901AC712551D39
:104D1C00900EB8E0640170037402F01255877003B2
:104D2C00A3E069600C050AE50AC3941E5003024C0B
:104D3C009F125593901AAC12550C90110F121E62C3
:104D4C00900EB1121E6E7A027B00900A83E0F9126B
:104D5C00185A8B09EA450970179090961222397AE5
:104D6C00027B00900A83E0F91218667404121F97F4
:104D7C0090110F780C121E38900EB1780C121DD3B6
:104D8C00901B6FE0F508A3E0F509E4F50AF50B7844
:104D9C000C7908121BF04008900FD6E06401703EAD
:104DAC00901B6FE064287004A3E064236030900EC5
:104DBC00B7E0C394645027901002E06003024F4F99
:104DCC00A2825003024F4F123E761222397A087B90
:104DDC0000900A83E0F91218667404121F97900E63
:104DEC00B7E064656003024F4FA2825003024F4F3D
:104DFC0012164AC290D28612163280FBE064026010
:104E0C0003024F31909006C082750C00750DF07541
:104E1C000E21750F0090102B780C121DD3758390FA
:104E2C00D082780C121C104005750826800375087A
:104E3C006475090080557417121FF5880C890D785C
:104E4C000C12222690909612223990102B121E567C
:104E5C0012193E7406121F97750B00A80B741712CB
:104E6C001FEB12559C12169E901029EAF0A3EBF042
:104E7C00050BE50BC3946440E2909096780C121EDF
:104E8C003890102B780C121DAC0509E509C3950858
:104E9C0040A4742665086003024AED7413121FF5D2
:104EAC0088088909780812222690911212223990CA
:104EBC00102B121E5612193E7406121F97750800FD
:104ECC00A8087413121FEB12559C12169E1254ED67
:104EDC00940440EC790012169E901029EAF0A3EB92
:104EEC00F0790012169E8A088B09A808A90990105F
:104EFC002912550C901027E0687003A3E0699018F4
:104F0C001F701F7403F0908FA87408122005740A88
:104F1C00121E8774081220057A0A79031218EA0205
:104F2C004AED024AEBE0640370057404024AECE0BB
:104F3C0064046003024AEDC2AFC2AF75C9AB75C958
:104F4C005B80FE900FDEE064016007E06402703A63
:104F5C008011900FD1E0640170091215CC900FDE16
:104F6C007402F0900FD1E070217C007D0079007A02
:104F7C00097B04121410900FDEE4F0900EB77464E9
:104F8C00F0901AC0E070037401F0909096122239E0
:104F9C007A407B00900A83E0F91218667404121FA1
:104FAC0097121632EE64400254CDEE540270030296
:104FBC005417EE6402FE900FD1E06401600B900E6A
:104FCC00A3E064016003025390900EBCE060030206
:104FDC005388900EA4E0600302519E900FD3E064BE
:104FEC000160030252891255B1F8C39481400890B4
:104FFC000E8BE06401601F900E90E0640170030260
:10500C00509AE8C394815003025294900EA3E0642A
:10501C00016003025294900E90E0706BE8C394818F
:10502C0050030252947401F0E8F9900EA5E4F0A339
:10503C00E9F0125593900E8912550C900E8512556D
:10504C00829090427808121E38901ACB7808121D64
:10505C00AC9010017401F09090827808121E389078
:10506C001ACB7808121C00901ACB5003025323124F
:10507C00551D900FC4F0A374E0F0A3741F123C2EC6
:10508C00900EBA0402534F64016003025289E4F09B
:10509C00900EA5E048F0900FD5E0640170741255A5
:1050AC002B12550C900EA9E024C0F508A3E0347E19
:1050BC0085080CF50DE4F50EF50F7402780C121D35
:1050CC0067900EAD780C121E4775088C75090E781A
:1050DC0008122226909112122239900EAD121E56F1
:1050EC0012193E7406121F97900E8CE0FAA3E0F989
:1050FC00EA900EA912550D12552BE0687003A3E02F
:10510C0069700F900E8EE0FAA3E0F9EA900EA512EA
:10511C00550DA80AC3E498F895E0F9749528F8742D
:10512C000E39F9E8FCE9FD8C828D83E412553512B9
:10513C001EF68B0974AE2AF582741A3509F583E0D4
:10514C008C828D83125535121EF6900EA512550CBD
:10515C00050AE50A940540BAE4900E96780CF0A383
:10516C00D8FC900E91E0900E97F0900E92E0900E7D
:10517C0099F0900E93E0900E9BF0900E94E0900EB0
:10518C009DF0900E95E0900E9FF0900EA47401F09F
:10519C00800764016003025289900FD3E0640160C0
:1051AC0003025289900EA2E0C3940B900FD1E064DD
:1051BC00014003025260704A900E8BE06401704211
:1051CC008518828519837440F07401121FEB1255F7
:1051DC0059C0E07402121FEBD0E0F07403121FEB05
:1051EC00E4F07404121FEBE4F07405121FEBE4F00E
:1051FC007406121FEBE4F07407121FEB1258C21264
:10520C0015C6900EA3E0640170428518828519833F
:10521C007440F07401121FEB125559C0E074021265
:10522C001FEBD0E0F07403121FEBE4F07404121FB8
:10523C00EBE4F07405121FEBE4F07406121FEBE4C0
:10524C00F07407121FEB12590E1219E6900EA2E021
:10525C000402531F700E900E8BE064017006125501
:10526C0070121686900EA3E064017006125570122F
:10527C00168C900EA2E4F0900EA402503D900E906D
:10528C00E06401700302503E1255B1FAC3948040A1
:10529C000302503E900EB5E4F074D72AF582E43444
:1052AC001AF583E0900EB9F0C39480400AE0248193
:1052BC00F0900EB57402F0901AC2E06A602E900F56
:1052CC00D1E064017008900EB9E0F9121686900EC8
:1052DC00A3E064017008900EB9E0F912168C125517
:1052EC00B1901AC2F0900EB5E402503D900EB5E4A8
:1052FC00F0900EB912551270057900121686900EA8
:10530C00A3E064017008900EB9E0F912168C901AA3
:10531C00C27480F00253C07808121E38E509540F8D
:10532C00F9E50849701E901ACB7808121E38909037
:10533C00027808121D99900FC47808121E47900E1F
:10534C00BA7401F0C3900E86E094044007900E8569
:10535C00E4F0A3F01255877003A3E069600D900E82
:10536C00891255B4704E909046804C900EBCE4F06F
:10537C00901AAC74D0F0A37407025412900FD1E0C1
:10538C0064016008900EA3E064017041900EBCE0D3
:10539C0064017039900EA4E07033900FD1E0640179
:1053AC0070057900121686900EA3E06401700579E1
:1053BC000012168C901B711222397A027B00900A13
:1053CC0083E0F91218667404121F97803A901ACB76
:1053DC007808121E38901AC77808121BDB600C90E4
:1053EC001ACB121E62901AC7121E6E125593900E93
:1053FC008712550C901AAC74D0F0A37407F0900E71
:10540C00B8E060037401F0EE0254CDEE5410600B62
:10541C007900121662EE64100254CDEE54046062F0
:10542C00900EBEE0F8900EBFE0C398503D12554C64
:10543C00E0F9900FCC121E56121920900EBFE0040A
:10544C00F09090427808121E38900FCC7808121DFC
:10545C00AC90910A1222397A047B00900A83E0F90D
:10546C001218667404121F978013900EBEE4F0900D
:10547C000EBFF0900FCC123C3E900EBDF0EE6404CB
:10548C00803FEE5408603FC28475080080169090EF
:10549C003E121E56121638D28390903E121E561291
:1054AC0016380508901002E0F8E508C398C283404E
:1054BC00DDE4F0900EB7E0646470037465F0EE64A4
:1054CC0008FAEFFB80047A007B0075820B75830170
:1054DC00121FCD7F0C0220E1F0A3E4F0A3F0A3F0A7
:1054EC0022901029EAF0A3EBF00508E508C322741A
:1054FC0001F090100312550522F0D2849090862270
:10550C00E8F0A3E9F022F0900FD1E0640122901AA8
:10551C00CFE4F0A37480F0A37403F0A3E4F0229022
:10552C000EA5125596900EA922F0900EA512559626
:10553C007A0A7B0022E0F50CE4F50DF50EF50F224E
:10554C00E0F874C028F582E4340EF58322E4F012FE
:10555C00555F22900EA2E0F8749628F582E4340E82
:10556C00F583E02212555FF92212557922E02401CD
:10557C00F0A3E0340022125579F022900E871255D8
:10558C0096900E85E06822900E85E0F8A3E0F92253
:10559C00E58228F582E43583F583E0F9901029E063
:1055AC00FAA3E0FB22900E85E02485F8A3E0340AF0
:1055BC00F988828983E02274F012200F74FF121F85
:1055CC0081EAFE7F0074055E700302586D1216DAD4
:1055DC00EAF508700302586DFC7D007A337B1012DB
:1055EC0016D485080CE4F50DF50EF50F90102F78F8
:1055FC000C121DAC900FD1E0700C900EA3E0700655
:10560C00900EB87401F0901033E060239010017488
:10561C0001F0801B12166290913E1222397A107B97
:10562C0000900A83E0F91218667404121F970FEFAA
:10563C00C3950840030257FCEFF8743328F8E434A0
:10564C0010F9880A890B8882F583E0F9900FDAE06B
:10565C00FA74572AF582E4341BF583E069701D74E3
:10566C005B2AF582E43410F583E9F0900FDAE0045C
:10567C00F0C3940E40B8900FD302576D901B65E0A9
:10568C00697013900FDAE0640D700BE9901068F0FC
:10569C00900FD5025788901B66E0697013900FDA53
:1056AC00E0640D700BE9901068F0900FD502576D07
:1056BC00901B67E0697013900FDAE0640D700BE9D2
:1056CC00901068F0900FDB02576D901B68E06970CA
:1056DC001A900FDAE0640D7012E9901068F0901BCC
:1056EC0069E0640170030257888076901B6AE06958
:1056FC00701B900FDAE0640D701312372870087469
:10570C0008F0A3140257A7742CF0A38054901B6BC1
:10571C00E069701D900FDAE0640D70151237287077
:10572C00087428F0A3742380727458F0A374028058
:10573C006A901B6CE0697012900FDAE0640D700ACD
:10574C00E9901068F0900FDE8017901B6DE0697087
:10575C0014900FDAE0640D700CE9901068F0900F63
:10576C00DF74018036901B6EE0697013900FDAE0E5
:10577C00640D700BE9901068F0900FDFE4801C74DE
:10578C0056697020900FDAE0640D702B901A5AE075
:10579C00C3940B4004740A80027464F0900FDAE432
:1057AC00F002563A745769700E900FDAE0640D707F
:1057BC00061216FE02563A900FDAE07003025620DB
:1057CC007509008013A809745B28F582E43410F580
:1057DC0083E0F91216620509900FDAE0F8E509C3C7
:1057EC009840E2E4F0850A82850B83E0F9025620AA
:1057FC00901B7C7401F0D286901AC1E4F0900EB626
:10580C00F090110F121E62900EB1121E6E901002CB
:10581C00E0702DA2824029901B79E0A2E0502190EB
:10582C0010027402F0901003141255051222397AEA
:10583C00087B00900A83E0F91218667404121F9713
:10584C00AC18AD197A057B0312189085188285194E
:10585C0083E0700D7401125872F97A057B031218EB
:10586C008A7401022F24F0AC18AD192274F712209F
:10587C000F74F8121F81125919121FEBE4F0740205
:10588C00121FEBE9F07403121FEBE4F07404121F07
:10589C00EBE4F07405121FEBE4F07406121FEBE45A
:1058AC00F07407121FEB1258C21215C67408121F9F
:1058BC00977F010220E1E41258727B087A01F922E9
:1058CC0074F712200F74F8121F81125919121FEB62
:1058DC00E4F07402121FEBE9F07403121FEBE4F016
:1058EC007404121FEBE4F07405121FEBE4F0740661
:1058FC00121FEBE4F07407121FEB12590E1219E68B
:10590C0080AAE4F07C087901AA18AB1922900EB594
:10591C00E0851882851983F074012274F012200F2F
:10592C0089088A09ECFEEDFF8B0C79007410121FAC
:10593C00EBE0F50EA3E0F50F7412121FEBE0F50A85
:10594C00A3E0F50BEB705F744D6E7003742A6F70EF
:10595C003274026509702C850E82850F83E0640118
:10596C007040850A82850B83E0A2E1E433FA0912C8
:10597C00155A850A82850B83E0A2E0E433FA79029A
:10598C0012155A780A122226850E82850F83E0FBA7
:10599C00EEFCEFFDAA09A9081216BC7402121F979F
:1059AC00801E790D804E7401650C7018780A1222D5
:1059BC0026780E122226A9081216C27404121F97FA
:1059CC00E9F980307402650C701374016508702459
:1059DC0074016509701E900A847401801674036545
:1059EC000C701174016508700B74016509700590D9
:1059FC000A84E4F0022F2702011F7808EB54806020
:105A0C0004D2F08002C2F0EA25E0FAEB33FBE9A203
:105A1C00E7500474014AFAA2F0500874216AFA742F
:105A2C00106BFBE9C333F918E870D102011FC08277
:105A3C00C083E9901952F0D083D08202011F74F612
:105A4C0012200FE99002F3F0900353E0F50875096A
:105A5C000074027808121F6EAA08AB091217D690B0
:105A6C0002F41263FD9002F41267EA606F90035324
:105A7C00E075F003A4FAABF01217D6900311126381
:105A8C00FD9003111267EA700B9002F41267BB12BF
:105A9C0017DC804890031112774F7AFF7BFF1214AA
:105AAC00BE7A0080198A0875090074027808121FE2
:105ABC006E1271F774FF125BFDE4F0A3F00A900311
:105ACC0053E0F8EAC39840DD7905120AB69002F368
:105ADC00E0F91209A27A407B0B120D3802729A740B
:105AEC00F412200F8A088B09EB548060479002F364
:105AFC00E0F91217468A0A8B0BAE0AAF0BEE4F6019
:105B0C002A8E828F83E064B0701A120AC8E960147E
:105B1C008E828F83A3A3A3A3E0F9EE2405FAE43FBE
